:1000000000000220750300005D0300005F03000094
:1000100061030000630300006503000000000000AE
:100020000000000000000000000000006703000066
:1000300069030000000000006B0300006D03000076
:1000400075300000D1420000C13000006F03000095
:100050006F0300006F0300006F0300006F030000D8
:10006000653100006F0300006F0300006F030000A4
:100070006F0300006F0300006F0300006F030000B8
:100080006F030000DD1800006F0300006F03000025
:100090006F0300006F0300006F0300006F03000098
:1000A0006F0300006F0300006F0300006F03000088
:1000B0006F0300006F03000000000000000000005C
:1000C0006F0300006F0300006F0300006F03000068
:1000D0006F0300006F0300006F0300006F03000058
:1000E0006F0300000000000000000000000000009E
:1000F000000000006F030000000000006F0300001C
:1001000000000000000000000000000000000000EF
:1001100000000000000000000000000000000000DF
:1001200000000000000000000000000000000000CF
:1001300000000000000000000000000000000000BF
:1001400000000000000000000000000000000000AF
:10015000000000000000000000000000000000009F
:10016000000000000000000000000000000000008F
:10017000000000000000000000000000000000007F
:10018000000000000000000000000000000000006F
:10019000000000000000000000000000000000005F
:1001A000000000000000000000000000000000004F
:1001B000000000000000000000000000000000003F
:1001C000000000000000000000000000000000002F
:1001D000000000000000000000000000000000001F
:1001E000000000000000000000000000000000000F
:1001F00000000000000000000000000000000000FF
:10020000354936480A1A02D0072291438D463449AF
:1002100034480A1A06D00722914381F30988022242
:1002200082F3148830483149314A00F044F83148AB
:100230003149324A00F03FF831483249324A00F041
:100240003AF832483249334A00F035F832483349F7
:10025000334A00F030F833483349344A00F02BF881
:1002600033483449344A00F026F8344834490022EF
:1002700000F02CF833483449002200F027F83348C6
:100280003349091A082902DB002202604160314A21
:1002900090471F481F49884205D00268043003B4C4
:1002A000904703BCF7E700208646EC46002000217B
:1002B000294A9047FEE7884207D0521A05D00378B2
:1002C00001300B700131013AF9D17047884202D0F8
:1002D00002700130FAE770470000022000E00120C0
:1002E000000002200000022030700000DC0000202E
:1002F00044010020D0030000D00300005C4B00004C
:1003000030700000DC000020DC000020E44D000024
:10031000E44D0000E44D0000E44D0000E44D000019
:10032000E44D0000E44D0000E44D00002E7000009C
:100330009870000044010020440100204401002086
:10034000F8130020F8130020FC130020FC130020F9
:10035000FC3300209D03000099320000FEE7FEE719
:10036000FEE7FEE7FEE7FEE7FEE7FEE7FEE7FEE765
:1003700000F002B8FFF7FCBF0F484FF007018843B9
:1003800085460E4880470E48016841F470010160BF
:10039000BFF34F8FBFF36F8FFFF732BF09480A4992
:1003A0000A4A884207D0521A05D0037801300B70F0
:1003B0000131013AF9D170470000022041450000A7
:1003C00088ED00E0084D000000000020DC00002067
:1003D00000487047F01300207047000007B5044B39
:1003E0000093044A402300F032F803B05DF804FBA8
:1003F000F9030000450100202DE9F8438846144622
:10040000B2B10F4B0F4E0325002743F001092246DE
:1004100008EB0701002004F061F80744241A48B9EA
:1004200033782BB14FF47A40C847013D02D1357083
:10043000BDE8F88301233370002CE8D1F8E700BF52
:10044000F04D000044010020704704F077B8F0B58B
:1004500095B01D46164608460C4602F0F1FB1A9B65
:100460000D93CDE9086500252B46082205A92046F5
:100470000A958DF82C500C9502F0FEFB079B029319
:10048000069B03939DF814308DF8115003F003027E
:10049000012A1DD1BDF81420059DC3F3C203C2F388
:1004A00083168DF81030B20008230EA9204602F002
:1004B000E3FBC5F3952508AB0093324602AB0EA9CA
:1004C000284600F04FFE204602F0BEFB15B0F0BDFE
:1004D000022AF8D1BDF81650C3F3C203C5F389153B
:1004E0008DF810300827082D2E4628BF08263B46D9
:1004F00032460EA9204602F0BFFBAD1B08AB02AA94
:1005000031460EA8374400F091FE002DEBD1DAE71A
:1005100008B5FFF79AFF0448042100F06FFD034B74
:1005200001225A7108BD00BFB04C0000DC00002061
:1005300000230428CB604B6098BF044B044A98BF4B
:1005400053F820308A600B60704700BF4C520000A7
:1005500028520000CB6800225A717047C368DB68DC
:1005600000225A717047CB6801225A717047C368E4
:10057000DB6801225A7170470D4A8A6070B50D4AD6
:100580000D4C0023121BCB604B600B6012091D4603
:100590009A4207D0E6683679FF2E05D0854202D10F
:1005A000A3680B6070BD013501331034F0E700BF64
:1005B00060520000D04C0000B04C00002DE9F34721
:1005C0008368D3F86431C3F340059B07074606D51B
:1005D0000022114602B0BDE8F04701F0DFBD144E25
:1005E000144CDFF85880DFF85890DFF858A0A41BAF
:1005F0002409A54202D102B0BDE8F087F168B368D2
:100600000A79FF2A07D10C4A0821384601F0CEFCAE
:1006100001351036EDE74879002814BF41464946B8
:10062000CDE9001238465246082101F0BFFCEFE741
:10063000B04C0000D04C00001D4E0000756400005E
:10064000144E00003C4E00002DE9F74F154D164C9E
:100650009946641B52F8043C06468846174624090E
:100660004FF0000B5C4507D1104A0221304603B021
:10067000BDE8F04F01F09ABCA9680193184604F058
:1006800016FAAA46019B103540B93B4642465146F0
:100690003046CC4603B0BDE8F04F60470BF1010B8C
:1006A000E0E700BFB04C0000D04C00005D4E000001
:1006B000014BFFF7C9BF00BF890A0000014BFFF7DC
:1006C000C3BF00BF55050000014BFFF7BDBF00BF12
:1006D00067050000014BFFF7B7BF00BF650B0000C7
:1006E000037813F0040216D003F00303012B03D0A8
:1006F000022B09D0012070470A6800880232C0F33B
:10070000831002440A60F5E70B684288023303EB6A
:1007100092130B60EEE71046704700002DE9F04F92
:10072000DFF810A10F4685B00446861C0020154650
:1007300000F0A0FFDAF804203A60DAF8083003F598
:1007400080739B1A0AF21C470AF583690AF214485F
:10075000B34219D30020002D68D004F00F039B0191
:1007600043F0050363F30F00DAF80430DAB2033222
:1007700033444AF822000020CAF8043000F07CFF1D
:10078000012005B0BDE8F08F0121384601F021F9C4
:10079000484601F036F9404601F033F9DAF808002E
:1007A0000090C0B203300AEB80006946FFF798FF63
:1007B000009B30BBDAB20AEB8202D16801919A1C2D
:1007C0000133DBB20AEB83030092D3F80CB001F0E3
:1007D0000303012B22D0022B15D08346404601F0A3
:1007E00013F910B1009BCAF808305946384601F099
:1007F000F0F8DAF80830DAF8042003F580739B1A71
:10080000A6E7D8B2CEE7BDF80630C3F389130333A9
:100810004FEA1B4B02EB93030093DFE7BDF8043074
:10082000C3F383134FEA1B4B1344F5E7A40544F0CD
:10083000060099E758020020012907B5034604D0B5
:100840008168D1F86411890707D50022114618463E
:1008500003B05DF804EB01F0A1BC53680193054BB4
:1008600000931368044A022101F0A0FB03B05DF875
:1008700004FB00BF7D4E0000734E00008368D3F878
:1008800064319B0703D50022114601F087BC024A60
:10089000022101F08BBB00BF924E0000FFF7EEBFBC
:1008A00030B599B10A4B0B4A0B49D21AD208002332
:1008B0009A4201D1052006E031F823500468A54290
:1008C00002D10360002030BD0133F1E70846FAE7AA
:1008D000304C0000B04C00005C0000202DE9F84FC7
:1008E0001D4B1E4801221A7002F063F9814698B927
:1008F0001B48DFF87C801B4CDFF878A002F0EBFA95
:10090000A4EB0804E4084D46A54208D10023164A8A
:1009100016481946A34219D14846BDE8F88F00276A
:100920003E4608EBC50BB54209D058F83610DBF847
:100930000000142203F0BCFF0028C8BF01370136B5
:10094000B442F0D12AF825700135DDE720F82310F4
:1009500042F8041B0133DDE758020020D04C0000B0
:100960001C520000B04C00009C0000205E000020E3
:10097000304C00005C00002007B5019001A8FFF793
:100980008FFF30B9019A044B53F8320003B05DF881
:1009900004FB0020FAE700BF304C0000002310B534
:1009A000CB604B60034B8B600C460121FFF7E4FFEB
:1009B000206010BD28520000094B013903EBC00034
:1009C000032909D8DFE801F00A0204060420704771
:1009D00000797047407970470020704702207047C7
:1009E000304C000030B5124C00EB400054F8215060
:1009F00002FA00F3072202FA00F06B400D4A0340AE
:100A00006B40C3F3821044F8213002EB8101C3F341
:100A1000C202824238BF0246C3F34220824203F040
:100A2000070338BF0246934238BF13464B8030BDA0
:100A30009C0000205C00002013B50446019101A831
:100A4000114693B1FFF72CFF10B1002002B010BD8A
:100A500001990B4A04EB440052F8212007238340FC
:100A6000134023FA00F0C0B2F0E7FFF719FF0028A7
:100A7000EBD1019A034B03EBC2039879E6E700BF81
:100A80009C000020304C0000294B2A4A2DE9F04FF1
:100A90009B1A4FEAD30ACB685B7985B005460E46B0
:100AA0001BB9254A022101F081FA244B244ADFF8C0
:100AB000A4800821284601F079FA224A0821284614
:100AC00001F074FA0024544502D105B0BDE8F08F5E
:100AD000F36893F8049001231A4621464846FFF72D
:100AE000ABFF00230746012221464846FFF7A4FF3B
:100AF0000121032881468346204628BF4FF0030981
:100B0000FFF73AFF5FFA89F90F4A58F829100346B0
:100B100058F827000D4F0090CB4598BF1746CDE9F8
:100B200001170B4A0821284601F040FA0134CAE7B0
:100B3000B04C0000304C0000A54E0000B84E000044
:100B4000C44E0000E24E000086550000A34E000097
:100B50001F4F00003852000013460A46C168FFF7D5
:100B600093BF00002DE9F04F2DED028B064683B0B8
:100B70001D469346002A5CD0CB682868554993F8F7
:100B800004A0072203F094FE0446E0B9BBF1010F74
:100B900009D1514A0221304603B0BDEC028BBDE8B9
:100BA000F04F01F003BA4D4F57F8041B68680A2252
:100BB00003F07EFE002800F085800134052CF3D17F
:100BC0006B68474A17E047492868082203F070FE1F
:100BD000044670B9BBF1010F36D04FF00108424B0B
:100BE000424AA3EB02094FEAD9030093DFF80891C8
:100BF0004FE02B683E4A0221304603B0BDEC028B29
:100C0000BDE8F04F01F0D2B900231A4629465046FC
:100C1000FFF712FFA04211D200212846FFF7ACFED9
:100C2000424603460221304601F0C0F90135BD427B
:100C3000EAD103B0BDEC028BBDE8F08F2246294615
:100C40005046FFF7CFFEF1E7274F284BDFF8A4808F
:100C5000FF1AFF080025EAE700213846FFF78CFE5F
:100C600018EE101A202203F023FE034608B10137C4
:100C700016E00246019039465046FFF7DDFEA042DD
:100C8000019B18D3224639465046FFF7ABFE08F1C8
:100C90000108D845CDD255F8283008EE103A002783
:100CA000009BBB42D8D155F828304A460221304635
:100CB00001F07CF9EBE719463846FFF75DFE0D4A77
:100CC0000346F3E7BBF1020FE4B2BDD04FF00208D8
:100CD00085E700BF354F00003C4F00003852000050
:100CE000A74F0000534F0000B04C0000304C0000F4
:100CF0005B4F0000704F0000934F000013460A4600
:100D0000C168FFF72FBF0000034BD3E90130C31ABE
:100D100058425841704700BF580200202DE9F04367
:100D200085B0FFF7F1FF0546002840F00A81864CA8
:100D3000C4F81804BFF34F8FA3680093DBB20333EA
:100D400004EB83006946FFF7CBFC009B18B1D4F895
:100D50001824002A63D0DAB2991C013304EB820212
:100D6000DBB204EB8303D268DB68029302F0030377
:100D7000022B019200915DD1BDF8063073489DF8B9
:100D80000450C3F389184746502F28BF502707F156
:100D9000080167F38F13C1F30901ADF8063001F0C4
:100DA00020FFC5F3C2050646002800F0B18001F01F
:100DB00047FF0023082201A9304601F053FF0099A4
:100DC000CB43DBB20133C9B20331B7EB830F4FEA38
:100DD000830204EB81012AD95FFA82F90823A7EB89
:100DE0000907304601F03EFFFFB209F108035849F8
:100DF00003F0FC033A46304601F034FF009B08F153
:100E0000030803EB98030093D4F81834002B49D15E
:100E1000D4F81074DFF84C914FF0070867E062686F
:100E20009A428BD8A260284605B0BDE8F08308231B
:100E30003A46E0E7012B6BD1BDF804504348C5F3B7
:100E40008311062928BF062161F38915023101F0BB
:100E50000F018900ADF8045001F0C3FEC5F3C205CF
:100E60000646002854D001F0EBFE0023082201A919
:100E7000304601F0F7FE0027BDF80420C2F38312CC
:100E8000BB00974203F10803BED200994A1CC9B2C5
:100E90000331009204EB81010422304601F0E2FEAE
:100EA0000137E9E7304601F0CFFEFFF72DFF80F074
:100EB0000100C5B2B7E7FB685A79B2B11B79BDF83A
:100EC000081003EB430259F8211008FA02F3052D2C
:100ED00003EA010323FA02F308BF0325AB4204D35C
:100EE0003B6831461B6838469847FB681F68002FEF
:100EF000E1D1304601F0A8FE384600F0BBFBD4F843
:100F000018340BB9009BA360002000F0B5FBCCE7C0
:100F1000D4F8104474B90F4B5B88012BC5D90E4B24
:100F20000E480F49C01AC008000440F0020000F04B
:100F300061F8BAE7236820469B689847E3681C6815
:100F4000E8E700256FE700BF58020020D04C000002
:100F50006402002070000020304C0000584C00005B
:100F6000C44F00009C0000202DE9F34704460E46C4
:100F7000924601A9012218469946FFF7CFFB1B4F65
:100F800010B3019D4FF00008AA1CC84508EB0201F0
:100F900023D11748002100F0F9FC80F31000000471
:100FA00040EA1440E4006B1C04F03804DBB2EDB2FC
:100FB00044F0010407EB8303033544EA881444EA50
:100FC0008624D86047F825403B781BB1FFF7A6FE82
:100FD0000028FBD102B0BDE8F087C9B207EB810160
:100FE0005AF82830CB6008F10108CEE758020020FB
:100FF0007406002000231A46FFF7B6BF2DE9F84318
:1010000088461B49D1F81034054600241A468AB98F
:10101000EA681471A3B9C1F810541360154B164E49
:10102000F61AF608002703F10709B7420DD120464A
:10103000BDE8F883D2681079A04212D01268E6E7C2
:10104000DB68196811601D60E8E719F83720EB6864
:1010500042453946187928BF4246FFF7C3FC01379D
:10106000E3E701340A2CD1D14FF0FF34DFE700BFB2
:1010700058020020304C0000B04C000038B5084B3E
:101080000125D3F810441D7004B938BDE3685D71C3
:10109000236820465B689847E3681C68F4E700BF54
:1010A0005802002030B5C38885B004460D4633B1E0
:1010B000144A00921449154A284601F076FB217A19
:1010C00005291DD0637A4BB1A088FFF775FC104B42
:1010D000104953F82020284601F067FB227A0E4B76
:1010E000A08853F8222003920021FFF745FC039AC1
:1010F0000A490346284605B0BDE8304001F055BB1B
:1011000005B030BDC8530000B0530000A853000024
:1011100020540000D156000044540000CD5300007C
:1011200007B503460846197A052911D05B7A2BB119
:10113000094A0A49019001F038FB019808490190D9
:1011400001F033FB019803B05DF804EB01F022BB22
:10115000002AF8D0F2E700BFC8530000D1560000C3
:10116000845500002DE9F04385B01F460C9D0023F7
:1011700095F80C902B7306460C4690462946384647
:10118000FFF790FFB8F1060F09D8DFE808F0041266
:10119000181F283340003146284601F006FB002284
:1011A00029463846FFF7BCFF85F80C9005B0BDE82E
:1011B000F08322683146284601F0F7FAEFE7D4E9D8
:1011C00000233146284601F0F0FAE8E7A3680093CF
:1011D0003146D4E90023284601F0E7FADFE7E36867
:1011E0000193A36800933146D4E90023284601F017
:1011F000DCFAD4E723690293E3680193A3680093C0
:101200003146D4E90023284601F0CFFAC7E76369E5
:10121000039323690293E3680193A3680093314623
:10122000D4E90023284601F0C0FAB8E708292DE9DF
:10123000F74F80460E4617461C463CD8002593F8CB
:101240000C901D7319461046FFF72CFFDFF888A09D
:10125000DFF888B0AE4231D918F80520594620464B
:1012600001F0A3FA0135082DF4D11949194DDFF821
:1012700070A0204601F099FA4FF0000B5E4522D98C
:1012800018F80B207E2A05D81046019203F092FA36
:10129000019A00B92E225146204601F086FA0BF140
:1012A000010BBBF1080FE9D1012221463846FFF7B7
:1012B00037FF84F80C9003B0BDE8F08F514620460C
:1012C00001F073FACEE72946204601F06EFAE6E710
:1012D000E1530000DF530000DD530000D75300004E
:1012E000E35300001FB50021039001AA44F201005E
:1012F000CDE9011100F004F805B05DF804FB000031
:1013000010B572B6FFF7BAFEFFF708FD0028FBD153
:10131000164C63884BB11648164B1749C01AC008C3
:10132000000440F00100FFF765FE144BD3F8F030E5
:10133000DB0700D500BE6388012B09D90C480D4B93
:101340000F49C01AC008000440F00200FFF752FE27
:10135000BFF34F8F09490B4BCA6802F4E062134395
:10136000CB60BFF34F8F00BFFDE700BF70000020D0
:10137000584C0000304C00005854000000ED00E0D4
:10138000645400000400FA0510B5D0E90243D1E925
:101390000202A04272EB03032CBF0120002010BD0B
:1013A00008B50A4800F095FA094AD2E90031C01898
:1013B000084BD3E9002341F10001904271EB030394
:1013C00003D210F1807041F1000108BDF800002047
:1013D000180700208007002038B5194B1B780446F9
:1013E00013B90025284638BD0028FAD090F82030DF
:1013F00003F0FF05002BF4D0FFF7D2FFD4E902235E
:10140000904271EB030316D323690BB984F82030A3
:10141000D4E90530984721690029E2D094F82030BA
:1014200003F0FF05002BDCD0D4E902325B1842F157
:101430000002C4E902320348214601F055FDD1E71C
:10144000200700209454000013B5114B114918686F
:10145000019008231048582200F04AFA044698B92F
:101460000E4A0F4801A900F017F9044660B90C486C
:10147000012100F011FA01230A4A0948194600F037
:1014800073F9094B01221A70204602B010BD00BF4B
:101490008E54000024070020E4000020B91400004E
:1014A000F8000020FFFF7F0020070020014800F027
:1014B00010BA00BFF80000202DE9F347064600F0FF
:1014C000F3F940B15A4AD2E9003113F1807341F186
:1014D0000001C2E900310021304600F0F4F938B1D2
:1014E000544C236823B12068FFF776FF0023236064
:1014F0000121304600F0E7F920B1FFF751FF4E4BD4
:10150000C3E900014D484B4D4D4C4E4F01A900F031
:1015100002FA002843D1DFF82881464CDFF82C91ED
:10152000404601F0F7FC2368002875D083B123689A
:10153000D0E90252D3E902138D4272EB03032BD29E
:10154000236893F820301BB12168404601F0CCFCA1
:10155000404601F0D9FCD0E9027A0546FFF720FFAA
:10156000381A6AEB010A01287AF1000347DBB0F56B
:10157000350F42D3FFF79AFF334A02444FF49603E4
:101580000021484600F010F9002840D1236813B923
:10159000304600F0E1F8256002B0BDE8F08703783E
:1015A000012B1FD0022B09D14FF00008204601F07B
:1015B000ABFC002838D080F82080F7E74BB94168B1
:1015C00091F820302BB9012381F82030204601F01A
:1015D0008BFC01A9194800F0C9F901A9174800F0CE
:1015E0009AF996E741682B68994202D100232B6053
:1015F000EFE7204601F091FCEBE7AA68BEE7002187
:10160000484600F056F92846FFF7E6FE01E00D28AF
:10161000F9D00023236083E7002BBDD1304602B010
:10162000BDE8F04700F09CB801233B70D1E700BF54
:10163000180700208807002080070020E400002011
:101640009454000020070020FFFFB400F8000020A1
:1016500072B6024A13680133136070478C0700208A
:10166000034A1368013B136003B962B6704700BFB9
:101670008C070020FFF7ECBFFFF7F2BF435882B0A2
:101680003BB10023435043580193019B012002B01A
:1016900070471846FBE70000F8B5264C4379264D05
:1016A00044F8232005EBC303244E1B7973B17388E0
:1016B000012B09D92248234B2349C01AC008000432
:1016C00040F00200FFF796FC0820F8BD03680A8886
:1016D000C3F8082590F904408B7802795B01002C4F
:1016E000DBB221DB19490F1987F8003301236409A4
:1016F00002F01F0203FA02F241F82420437905EBBD
:10170000C30245F8330073880121022B117109D9F6
:101710000B480C4B0E49C01AC008000440F00300EF
:10172000FFF768FC0020D0E70A4902F00F028B5453
:10173000E4E700BF98070020900700207400002015
:10174000604C0000304C0000A054000000E100E0BC
:10175000C254000014ED00E0036801221A607047D3
:10176000036801225A60704773B501F15005AD005E
:101770000068ADB24FF480348C400026C0F80843B6
:10178000C0F84843465101F5A8714559019522F02A
:101790007F42019D40F82120C0F844430BB1C0F8BE
:1017A000044302B070BD00002DE9F74F0D4622F052
:1017B0007F4402684FF4803705F150068F40804621
:1017C000B60002EB8500C2F84873B6B2C2F80873DF
:1017D000D2F8041599464FF0000BD0F84035C0F808
:1017E000401542F806B05B1A9259009223F07F43ED
:1017F000012B009A4FEA850A0CD1264B4FF48060EA
:1018000043F001039847D8F8003043F806B09B59DD
:101810000193019BD8F80010D1F80465C1F8447316
:10182000A31B23F07F43012B1CD11A4B05F5A87590
:10183000013443F0010341F825404FF4806098479C
:10184000D8F80030D3F804359E4209D1D8F80030DA
:101850000020C3F84473C3F8047303B0BDE8F08FED
:101860000D20FAE78A44C9F1FF13CAF84045D1F8C0
:101870000405221A013A22F07F4203F57F43934286
:10188000EED3002AE2D10134CAF84045D1F804353C
:101890009842DAE7E054000003680222C3F84423C8
:1018A00009B1C3F80423704700684FF48271FFF751
:1018B000E5BE4FF4803303FA01F10368C3F848131F
:1018C000C3F80813704750318900006889B2FFF7E8
:1018D000D5BE0368D3F8040570470000024B034AE5
:1018E0001B681068184700BF980700209007002069
:1018F00010B561B1B2FBF3F403FB1424A4B244B9F4
:10190000C0E9001484608281C381204610BD0E208E
:10191000FCE70920FAE737B550E8023F1FFAA3F5C4
:10192000C488A54202BFBFF32F8F00220DE0C489F7
:1019300025448489A54228BF2D1BC3EA054540E8FC
:101940000254002CE8D14FF001028DF803200193DE
:10195000019A0A609DF8031001F0FF0321B10068AD
:1019600000EB124003B030BD1846FBE70A884B88F5
:101970009A4209D150E8022FC2EA224240E80223EB
:10198000002BF7D1012070470020704710B50346A7
:1019900053E8000F0A4643E8002494F0000FF7D103
:1019A00010BD10B5034653E8002F42EA010043E89A
:1019B000000494F0000FF6D110BD10B5034653E8B3
:1019C000000F00EA010243E8002494F0000FF6D172
:1019D00010BD10B5034653E8002F02EB010043E8A9
:1019E000000494F0000FF6D110BD10B5034653E883
:1019F000002FA2EB010043E8000494F0000FF6D1A1
:101A000010BD0121FFF7CDBF0021FFF7D6BF0000B9
:101A10002DE9F0478368D3F86431C3F340059B0791
:101A200088B0074606D50022114608B0BDE8F04749
:101A300000F0B4BB012906D91E4A022108B0BDE856
:101A4000F04700F0B3BA1C4C1C4EDFF874A04FF006
:101A50006408A946361B1C23B6FBF3F6AE4204F11C
:101A60001C0402D108B0BDE8F08754F81C0C54E9FE
:101A70000623017900689A1A1B1ADBB2039308FB4C
:101A800003F3B3FBF2F3CDE9019334F8043C009384
:101A9000CDE9061254F8083C11FB08F13846B1FBB9
:101AA000F2F1CDE904215246082100F07FFA013518
:101AB000D4E700BFE6540000D04C0000084D000001
:101AC000F954000010B590B1D0E9012301689B1AC8
:101AD000DBB20A60013BDBB2FF2B026802D10020BF
:101AE000107110BD11684C1C14600B70F2E70E20D1
:101AF000F7E738B504460020FFF7BCFD22686368AD
:101B00001168994213D9481E106011F8013CE5682C
:101B1000218B01FB0355A36811791B1ADBB2994293
:101B200000D213710020FFF7A7FD284638BD00251D
:101B3000F8E738B5054600200C46FFF79BFD2A68FC
:101B40001368591C1160E968641A298BB4FBF1F41D
:101B50001C70BDE838400020FFF78EBD436810B50B
:101B60009C686068036801219B689847A36810B966
:101B700003221A7010BD0422FBE700002DE9F84390
:101B8000089E1C460D46E9B9194E1A4B9B1BB2EB39
:101B9000D30F4FEAD30804D2174F07EB8207A845AB
:101BA00001D1002309E073683868196802F07FFFEB
:101BB000B146083620B9D9F804302360BDE8F8836F
:101BC0000135ECE70028ECD00178436839B13146A3
:101BD000104698473368002BE3D02660EEE71101EA
:101BE00003EB02125B58002BDBD02260E6E700BF5C
:101BF0005C4B0000144C00000000002008B102F013
:101C00007DBF704710B584680068FFF7F7FFE37F7A
:101C1000627EA07653FA80F3B3FBF2F102FB11333C
:101C200001332375A37F53FA80F00131B0FBF2F347
:101C300002FB1300A1750130591C6075E17504F1B8
:101C4000140010BD07B58368DA7E8A421ED01B22BD
:101C50008DF800205B228DF8012031228DF80220C2
:101C60003B228DF8032033228DF8042001F12F024E
:101C70008DF805206D22D9768DF8062000228DF88A
:101C80000720044900696A4600F08FFD03B05DF843
:101C900004FB00BFD15600000A4609B1FFF7D2BFCE
:101CA0008168CA760069024A024900F07EBD00BF21
:101CB000575A0000D156000007B583681A7F8A4240
:101CC00018D01B228DF800205B228DF801203422D1
:101CD0008DF8022001F12F028DF803206D22197773
:101CE0008DF8042000228DF80520044900696A4619
:101CF00000F05BFD03B05DF804FB00BFD1560000AF
:101D00002DE9F34105460F461446002614B902B0EA
:101D1000BDE8F081686803682246D3F80C80B919E1
:101D200001ABC047019B1E44E41A002BEED1AB6807
:101D30001A78032AEAD0D3F864219206FBD5B3F8C7
:101D400064216FF34512A3F86421DFE70A460149D5
:101D500000F02BBD0856000011B10069FFF7F6BF77
:101D600070470000014900F020BD00BF855500000C
:101D7000014A024900F019BD535A0000D156000033
:101D80000A4619B10249006900F00FBD704700BF53
:101D90000E5600000A4619B10249006900F005BD5F
:101DA000704700BF145600002DE9F34105468068D6
:101DB000424F002480222146A0308DF8034002F0DB
:101DC00021FE3F49286900F0F0FC286900F0E2FCA0
:101DD0004FF47A7647F00107686803680122D3F868
:101DE00010800DF1030101ABC047019B5BB94FF6B9
:101DF000C010B847019B002BEED1013EB6B2002EB9
:101E0000EAD10D2035E09DF80330AA681B2B48D09D
:101E100092F8A0101B29EDD1522B42D1144400237B
:101E200084F8A03092F8A1105B291FD102F1A2061C
:101E300002211D4616F8010B4C1C3B28E1B264B28E
:101E40001AD1002C20DB01F1A0041444002314F863
:101E5000010BD8B9FA2B28BFFA23FA2D13752B469C
:101E600028BFFA23937582F8A00002E082F8A03020
:101E70000B2002B0BDE8F08105EB850300EB4303C6
:101E8000303B80299DB2D5D10C20F2E703EB8303D0
:101E900000EB43004E1C303883B23006F1B2F3D46D
:101EA000D5E711190134E4B2092C81F8A030A1D989
:101EB000002382F8A0300420DBE700BF705A000046
:101EC000645A00002DE9F74F044690460E4600295B
:101ED00069D00025705D02F068FC28BB5FFA88FBC2
:101EE0003046FFF78BFEA36893F81990401BA9EBCF
:101EF000080906EB050A484553464FF0000716D976
:101F000013F8010B019302F050FC019B20B113F870
:101F1000012C0A2A30D0B946A268517E08EB07028C
:101F2000914228D90137EBE70135D3E70137B842B1
:101F300017D013F8012B0A2A05EB0709F6D12069FF
:101F400000F028FC51463A462046FFF7D9FE2069AA
:101F5000FFF708FF5FFA88F1204609F10105FFF756
:101F6000FBFE2069711900F020FC206903B0BDE878
:101F7000F04FFFF7F7BE4F46206900F00BFC3A46E2
:101F800051462046FFF7BCFE3D44705D02F00DFC5B
:101F900038B92069FFF7E6FE59462046FFF7DCFE18
:101FA0009EE70135F1E703B0BDE8F08F0CB473B5DF
:101FB00006AB0D4653F8046B81680193D1F8643188
:101FC0005B07044620D5CB7EAB421DD002221B31DD
:101FD000684602F0EEFC29462046FFF75DFE2069C8
:101FE00001AA314600F058FC9DF800102046FFF78A
:101FF00053FE9DF8011011B12046FFF75DFE02B0BF
:10200000BDE8704002B07047206901AA314600F077
:1020100043FCF4E72DE9F041C3685B6890B00446E7
:102020000D461868002203A900F00FFF002840F0B9
:102030008A808DB1039800F007FEA268D2F854316F
:102040000133C2F8543103F00703012B04D00125FA
:10205000284610B0BDE8F0812046FFF7D3FD817817
:102060000129064604D90139C9B22046FFF788FE86
:102070003178012904D90139C9B22046FFF78AFE17
:102080002069FFF775FE2DB1304A02212046FFF787
:102090008DFFDDE700230822039804A900F0ECFD82
:1020A000069B0793059B08939DF810308DF82550EB
:1020B00003F00302012A25D1BDF81020049E0398E5
:1020C000C3F3C203C2F383178DF82430BA00082388
:1020D0000AA900F0D1FDC6F39526236900933A467C
:1020E00007AB0AA93046FFF73DF8039800F0ACFDB6
:1020F000E3685B680022186803A900F0A6FE0028C8
:10210000C8D0A4E7022AF0D1BDF81260C3F3C2031D
:10211000C6F389168DF824304FF00808082E37468C
:1021200028BF0827434603983A460AA900F0A4FDB1
:10213000F61B236907AA39460AA8B844FFF776F8C0
:10214000002EEBD1D1E7002582E700BF205600002A
:10215000436801219868FFF75DBFF7B547680191B3
:10216000BD68AB681E78042E0ED0386801A900F057
:10217000A5FD044650B9019800F062FD032E03D17D
:1021800021462846FFF746FF03B0F0BDF11E18BFF9
:1021900001212846FFF73EFFE7E700002DE9F04F59
:1021A00005468BB08048DFF8209217460E4602F0B5
:1021B000A5FC80467D4802F0A1FCAB68CDF80090FC
:1021C000A8EB00007A4A5B6808211FFA80F82846CD
:1021D000FFF7ECFEAB685868FFF710FD0446484671
:1021E00002F08CFCAB68204482B299682846FFF765
:1021F00069FE704A00212846FFF7D8FE1FB316B3C8
:10220000B34607EB470A4FF00009DBF80400FFF77D
:10221000F5FC044656F82900FFF7F0FC2044404541
:102220000BD9DBF80400FFF7E9FC804656F82900DB
:10223000FFF7E4FC40441FFA80F809F10309CA459E
:102240000BF10C0BE1D1594802F058FC841C4444BA
:10225000A4B2554B584A009304F1030808212846BC
:1022600023461FFA88F8FFF7A1FE54494246284644
:10227000FFF728FE3EB1DFF840A1DFF850B14FF084
:102280000009B94508D1AB68D3F80C80B8F1000F4C
:1022900042D10BB0BDE8F08FD6E90023002B33D03C
:1022A00052B30192414A009208215A462846FFF74C
:1022B0007DFE7068FFF7A2FC03903068FFF79EFC7C
:1022C00002903A4802F01AFC039A029BA11ACB1A18
:1022D000181AC1B22846FFF73FFD394928693A224A
:1022E00000F063FAB16899B142462846FFF7EAFD6B
:1022F00009F101090C36C4E7009323465246082130
:102300002846FFF753FEEDE7002AEBD00092F4E7F2
:102310002869FFF727FDEBE700220592174606AE76
:10232000009605AB0121404602F10109FFF726FCAA
:10233000059C5CB12068FFF761FCB84204D9059B9D
:102340001868FFF75BFC87B24A46E9E7B9F1010F6D
:102350009FD01C4ADFF860A021462846FFF726FEE2
:102360002246BC1CA4B205AB00960121404602F1F6
:102370000109FFF703FC059B002B8AD01B68009323
:102380000821234652462846FFF710FE059B596850
:1023900031B17A1D92B22846FFF794FD4A46E2E732
:1023A0002869FFF7DFFCF9E7765A0000E85B0000D8
:1023B000CB560000D4560000DE560000E656000062
:1023C000E353000002570000695A0000F95600006C
:1023D00000221146FFF7E2BE022910B5044608D1DB
:1023E0008368D3F864319B0703D5BDE81040FFF73D
:1023F000EFBF2069054A064900F0D7F92069054A70
:102400000349BDE8104000F0D0B900BF605A000099
:10241000D15600005B5A0000012906D0022906D1DE
:102420008368D3F864319B0701D5FFF7D1BF024A17
:102430000221FFF7BBBD00BF8056000038B583689E
:10244000D3F86421C2F3400592070C4606D500225A
:102450001146FFF7A3FE2C46204638BD0029FBD0CD
:102460005B68024A0221FFF7A1FDF5E71057000063
:10247000012937B50546144604D103B0BDE8304004
:10248000FFF7A6BF023918BF0121FFF7D7FF48B9F0
:1024900063680193044B0093044A23680221284691
:1024A000FFF784FD03B030BD7D4E00002B570000C8
:1024B000012907B504D103B05DF804EBFFF788BF2D
:1024C00002290AD153680193084B00931368084A04
:1024D000FFF76CFD03B05DF804FB8CBF0121002108
:1024E00003B05DF804EBFFF7A9BF00BF7D4E00000D
:1024F0002B570000013910B518BF01210446FFF722
:102500009DFF40B9044A0549206900F04EF9A368CF
:1025100045F218021A8310BD4D5A0000D156000032
:102520000129F7B50446154633D18568FFF73CFC11
:1025300018BBA36820691F7D9E7DFA21FFF706FC6A
:1025400020691D49FA2200F030F92046FFF72CFCE3
:1025500098B9A368197D6976A368C91B9B7D2B7602
:102560002046C9B2FFF716FC297E891BC9B2204656
:1025700003B0BDE8F040FFF703BCA36845F21802C2
:102580001A830E4A0421204603B0BDE8F040FFF74D
:102590000DBD022994BF00210121FFF74FFF48B96B
:1025A0006B680193064B00932B68064A0221204674
:1025B000FFF7FCFC03B0F0BD1A56000034570000D2
:1025C0007D4E00002B5700002DE9F041013986B007
:1025D00018BF01210546FFF731FF40BBAB68DFF8AC
:1025E0005480D3F85C610446EEB1082C1BD0304611
:1025F0000023092203A900F03FFB9DF81420A968DD
:10260000304609230132A03100F036FBAB68049E4E
:10261000A0330093671C2346424600212846FFF75B
:10262000C5FC3C46E0E7AB68002283F8A02006B07A
:10263000BDE8F0816E570000013910B518BF0121C7
:102640000446FFF7FBFE30B9A368B3F8642160F3DA
:102650008202A3F8642110BD013910B518BF012111
:102660000446FFF7EBFE30B9A268B2F8643143F0DC
:102670000403A2F8643110BD013910B518BF01215F
:102680000446FFF7DBFE30B9A368B3F8642160F3BA
:10269000C302A3F8642110BD013910B518BF012190
:1026A0000446FFF7CBFE30B9A268B2F8643143F0BC
:1026B0000803A2F8643110BD022973B50D4694BF1A
:1026C0000021012104461646FFF7B8FE014658B91D
:1026D000022D0BD1736801930C4B00930C4A3368A5
:1026E00029462046FFF762FC02B070BDA368094A84
:1026F000D3F8643113F0080F074B18BF1346074A8D
:10270000204602B0BDE87040FFF750BC7D4E00008F
:102710002B57000000650000785700007C57000030
:10272000013910B518BF01210446FFF787FE48B9EB
:10273000A368C3F85401E3685B68BDE810401868FB
:1027400000F0C5BB10BD00007FB5013918BF0121E5
:102750000446FFF773FE0546B8B9E3685B681E6878
:10276000304600F0B1FBB268A168C3B2CDE90132D6
:1027700064204343B3FBF2F3DBB20093D1F854314E
:10278000034A29462046FFF711FC04B070BD00BF84
:102790008D570000826810B504462AB1436901686C
:1027A000006998470023A36010BD0EB403B50399D8
:1027B00021B104AB01AA019300F06EF802B05DF8FC
:1027C00004EB03B07047826830B40468551C856020
:1027D000A154D0E901329A4202D330BCFFF7DABFEC
:1027E00030BC70472DE9F84F9846DDE90A4315469D
:1027F00082460F460A464FF00109AA420FD2C14550
:1028000038BFC14613F0010B01D16CB90024012679
:10281000B8F1010F1BD908F1FF386E43F8E709F151
:102820000109B2FBF5F2E8E79B070ED5B8F1000FFE
:102830000CBF30262026A145E9D2013C3146504646
:10284000FFF7C1FF002CF6D1E0E72026F3E7B7FB46
:10285000F6F39D42E1D9DFF83C80B7FBF6F3504632
:1028600018F8031006FB1377FFF7ADFF3346AB42B2
:10287000B6FBF5F6F1D2BBF1000F02D00CB1A145C9
:1028800001D3BDE8F88F20215046013CFFF79BFFA4
:10289000F4E700BFF45B00002DE9F74F054617464B
:1028A0008846002900F03E8118F8011B49B92B7BAE
:1028B000002B00F03781284603B0BDE8F04FFFF74A
:1028C00069BF252940F0B780002698F800302D2BED
:1028D000424608F1010823D0302B24D02B2B25D0E1
:1028E00000242A2B02F1010123D13B681A1D1B6829
:1028F0003A601C440A4613782E2B26D101324FF041
:10290000000A104610F8011BA1F1300CBCF1090FB0
:102910001DD80A2303FB0A13A3F1300A0246F0E78D
:1029200046F00106D1E746F00206CEE746F004067F
:10293000CBE711F8013CA3F130000928DBD80A22CB
:1029400002FB0434303C0A46CBE74FF0000A12F891
:10295000011B01F0FB0068289046F8D0782909D8BF
:102960006F290CD8632962D022D8252963D0582931
:1029700000F0888098F80030002B95D197E77039E7
:102980000829F7D801A353F821F000BFFF2A00005F
:102990007529000075290000952A0000752900009E
:1029A000732A00007529000075290000852A00009F
:1029B000642901D06929DDD13A68D2F80090111D4F
:1029C00089EAE9723960A2EBE9724FF0010B092A3A
:1029D00035DCD34538BFD3462CB1B9F1000F01DB4C
:1029E000720700D5013CB30702D5BAF1000F03D03E
:1029F000F00701D44CBB0024B9F1000F2DDAC9F166
:102A000000092D212846FFF7DEFE06F00302022A08
:102A100004D1BAF1000F01D11CBB0024CDE900465E
:102A200053460A2249462846FFF7DCFEA2E73B68E8
:102A30001A1D19783A602846FFF7C5FE9AE70A235F
:102A40000BF1010BB2FBF3F2C1E7A345D4D2202175
:102A50002846013CFFF7B7FECCE77107D5D52B21FF
:102A6000D0E7A345DAD230212846013CFFF7ABFE80
:102A7000D2E73968CDE900460A1D3A6053460A227A
:102A80000968D0E739680A1D3A60CDE90046534627
:102A90001022F5E73B681A1D3A6016F00106D3F8DC
:102AA000009024D1B9F1000F03D0484602F026F877
:102AB0000646B4421DD809F1FF3919F8011F002953
:102AC0003FF458AF2846FFF77EFEF6E7284601366A
:102AD000FFF779FE19F806100029F7D1A642BFF4D6
:102AE00049AF20212846013CFFF76DFEF6E700269E
:102AF000F0E720212846013CFFF765FED9E73B6857
:102B00001A1D3A60302128461C68FFF75CFE7821C8
:102B10002846FFF758FE00220823CDE9003221465F
:102B2000102280E703B0BDE8F08F00BF2DE9F84F19
:102B3000B0F806A04579D2F800B09DF828900AFBBD
:102B400005F5043D88460BEB0301A94203F104049B
:102B500088BFA5EB030BB4FBFAF607460AFB164445
:102B6000C2F800B04EB9AAEB04055D4528BF5D462A
:102B7000BBF1000F04D1BDE8F88F3F68013EF1E7DB
:102B8000043408EB06003C442A46B9F1000F0DD08E
:102B90002146ABEB050B01F00CFFDA452E443F68F4
:102BA00055464FF0000428BF5D46E1E70146204648
:102BB000EFE7FEF787BFF8B546790146721E054676
:102BC000002393422D6803D30024A64202D8F8BD07
:102BD0000133F6E70F682846FEF7ABFF01343946AC
:102BE000F3E72DE9F843068BCD1C0746FEF781FF7E
:102BF000043E35440446B5FBF6F5F0B14FF480735E
:102C0000EDB28380C680013D076081464FF0000829
:102C1000A84512D23846FEF76CFF064648B16379E4
:102C20000133637108F10108C9F8000007608146AB
:102C3000EEE72046FFF7BFFF34462046BDE8F883A5
:102C400001210430FEF7C5BE10B501210446043051
:102C5000FEF7CBFEC0B220B92046BDE81040FFF71A
:102C6000AABF10BD1FB503920022009203AAFFF76E
:102C70005DFF05B05DF804FB1FB5039201220092D1
:102C800003AAFFF753FF05B05DF804FB0268136861
:102C90005268934291BFD01A80680130801888BF73
:102CA000C01A7047036881681A685B688B4234BF3A
:102CB00001330023D31A58425841704770B5044677
:102CC00000200D46FEF7D6FC2046FFF7EBFF10B1C3
:102CD000237C002B3BD12368A1685E685A688A4236
:102CE00034BF013200225A6028B11A6891428CBF69
:102CF000013200221A60E2686368511E072920D859
:102D0000DFE801F004101F141F1F1F182A789A55BE
:102D10002046FFF7BBFF23689A68824200D2986082
:102D2000002415E02A8823F81620F1E72A6843F8E2
:102D30002620EDE7D5E9000103EBC603C3E9000156
:102D4000E6E7294602FB063001F033FEE0E7042403
:102D50000020FEF791FC204670BD10B5044600200F
:102D6000FEF788FC2046FFF791FF04460020FEF79F
:102D700083FC204610BD00002DE9F04F8368D3F896
:102D80006431C3F340059B078BB0064606D500228D
:102D900011460BB0BDE8F04FFFF700BA012906D984
:102DA000204A02210BB0BDE8F04FFFF7FFB81E4CE0
:102DB0001E4BDFF88090DFF880A01B1B1C22B3FBAA
:102DC000F2F8A84502D10BB0BDE8F08FE368099393
:102DD0002368A768D3F808B02046FFF7BEFF94F831
:102DE00010E0134A642303FB00F1BEF1000F18BF8B
:102DF0004A4603FB0BF3B3FBF7F3CDE9043BB1FB0E
:102E0000F7F1099B0191CDE90672CDE90207009324
:102E10005246636908213046FFF7C8F801351C3473
:102E2000CFE700BFE6540000144C0000304C000017
:102E30000D5C0000165C0000225C0000036818684E
:102E40005B68C31A58425841704770B50546002068
:102E50000C461646FEF70EFC2846FFF7EFFF00284B
:102E600030D12B6819682EB91A68A868824238BF19
:102E7000561C1E60EA686B68501E07281CD8DFE8E5
:102E800000F0040C1B101B1B1B145B5C2370002444
:102E90000020FEF7F1FB204670BD33F8113023808F
:102EA000F5E753F821302360F1E703EBC103D3E9E1
:102EB0000023C4E90023EAE701FB0231204601F0C8
:102EC00078FDE4E70524E3E7036898687047036842
:102ED00000229A607047836800225A60C3E9042286
:102EE0009A60DA601A60704770B5446806460D460D
:102EF000206818B1B3682946984718B923682B6031
:102F0000256070BD2468F3E74368186808B102685B
:102F10001A6070474368186870474368186800B9BA
:102F20007047884203D102681A6001207047034647
:102F30000068F4E738B5074C051E04F1080318BF14
:102F40001C4623682BB11A6822605B6828469847A4
:102F5000F7E738BDA407002020B9054B01225A70BD
:102F6000FFF7E8BF012802D1014A9070F8E77047E7
:102F70009C07002038B50C4C23789BB90B48636044
:102F8000A3602361E36000F049F8054600F052F8C1
:102F900001232370064BD3F800340BB10123A37037
:102FA000284638BD8525F5E79C070020592F0000ED
:102FB0000000014038B5134CA378054603F0FF002C
:102FC00073B115B16B68012098470020FEF752FBE2
:102FD000E3680133E3600020BDE83840FEF74CBBF6
:102FE000FEF748FB25B1226913463BB92A602561EB
:102FF000E368002BECD100F02FF8E9E79D42F7D011
:103000001B68F2E79C07002000F18040002382B09B
:10301000036003680193019B02B07047044A13796F
:1030200023B901211060117118467047852070473F
:10303000B0070020074B1A68D20704D4C02283F8D7
:10304000002301221A604FF080430122C3F81825A3
:10305000704700BF00E100E008B54FF48270FFF751
:10306000D3FF4FF080430222C3F8042301229A6069
:1030700008BD00004FF0804210B5D2F8003153B1C6
:103080004FF48070FFF7C0FF0123C2F808330B4BE9
:1030900000201B6898474FF08042D2F8043163B19A
:1030A0004FF48270FFF7B0FF0223C2F80833034BDE
:1030B000BDE810401B680120184710BDB007002074
:1030C000014B1B68184700BFB807002003680122A6
:1030D0001A600279034B0C2101FB023302221A729F
:1030E000704700BFC0070020036801221A61017900
:1030F000024B0C2000FB01331A727047C0070020FE
:1031000003680122DA60704737B54FF480340068F5
:103110008C407BB18B0003F5A0730025C550C358CC
:103120000193019BC0F8044301F5A87140F82120E8
:1031300003B030BDC0F80843F6E770B4046840F24D
:103140000116D4F800528E4025EA0605C4F8005254
:10315000D4F800522B43C4F800329DF80C3070BCF8
:10316000FFF7D2BF2DE9F341104C114F114E00254E
:103170004FF48038236883B1D7F8043308FA05F296
:103180001A420AD00023236023680193A4F500406B
:10319000019B80B2D6E9003198470135042D04F136
:1031A0000404E7D102B0BDE8F08100BF40810040D7
:1031B00000800040C007002010B5084C802200218C
:1031C000A01C01F01FFC40F2466363804FF0043303
:1031D00063604CF20443238110BD00BFCC07002084
:1031E0000A2803D80230C0B240007047A0F10B0398
:1031F000192B01D80330F6E7262804D0272814BF5E
:103200000220502070471A207047000008B502467F
:10321000FFF7E6FF024BC3F80805C3F8542508BDC5
:103220000010004008B50121FFF7F0FF154B002208
:10323000C3F800211960D3F80021002AFBD0002236
:10324000C3F80C2101229A600E4AD2F80C31002BEF
:10325000FBD00D4B5B88022B09D90C480C4B0D4958
:10326000C01AC008000440F00300FDF7C3FE054B80
:103270000022C3F8102101221A61D3F81021002A7C
:10328000FBD008BD0010004070000020584C00002A
:10329000304C0000225D000010B529484FF48041F9
:1032A000FDF71CFB08B1FEF71DF8FFF763FE08B140
:1032B000FEF718F80020FFF77DFEFEF7C5F808B10D
:1032C000FEF710F84FF080430022C3F800210122DE
:1032D0001A60D3F80021002AFBD04FF4804100206F
:1032E000FDF7FCFA044608B1FDF7FCFFFDF710F905
:1032F00001F02EF801F018F8FFF75EFF114B124AAB
:10330000C3F80425114B5B88022B09D91048114BD7
:1033100011491B1ADB081B0443F00300FDF76AFE8A
:1033200014B12046FDF7DEFF2520FFF77BFF2620A6
:10333000FFF778FFFDF7F2FC0028FBD1F4E700BFB0
:10334000AD14000000100040CE07002070000020E7
:10335000304C0000584C0000365D0000034B0F223B
:103360005A700321024B034AFEF720BE14010020CD
:10337000DA5D0000FC5D0000034B06225A70032159
:10338000024B034AFEF712BE140100200C5E00003F
:10339000FC5D0000034B05225A700321024B034AD7
:1033A000FEF704BE14010020295E0000FC5D000051
:1033B000034B04225A700321024B034AFEF7F6BD69
:1033C00014010020465E0000FC5D0000034B044A2F
:1033D00003215970034BFEF7E9BD00BF1401002023
:1033E000FC5D00005F5E0000034B01225A70032168
:1033F000024B034AFEF7DABD14010020785E00009C
:10340000FC5D0000034B00225A700321024B034A6B
:10341000FEF7CCBD14010020915E0000FC5D0000B1
:10342000034BD8229A700321024B034AFEF7BEBD1C
:1034300014010020AA5E0000C55E0000034BE222DA
:103440009A700321024B034AFEF7B0BD140100201D
:10345000D45E0000C55E0000034BEC229A7003218D
:10346000024B034AFEF7A2BD14010020EF5E0000EC
:10347000C55E0000034BF0229A700321024B034A01
:10348000FEF794BD140100200A5F0000C55E000035
:10349000034BF4229A700321024B034AFEF786BDC8
:1034A00014010020255F0000C55E0000034BF822D8
:1034B0009A700321024B034AFEF778BD14010020E5
:1034C000405F0000C55E0000034BFC229A700321A0
:1034D000024B034AFEF76ABD140100205A5F000048
:1034E000C55E0000034B00229A700321024B034A81
:1034F000FEF75CBD14010020745F0000C55E000093
:10350000034B04229A700321024B034AFEF74EBD7F
:10351000140100208B5F0000C55E0000034B044ACD
:1035200003219970034BFEF741BD00BF1401002039
:10353000C55E0000A55F0000034B02229A700321C4
:10354000024B034AFEF732BD14010020BF5F0000AA
:10355000C55E0000034B05229A700321024B034A0B
:10356000FEF724BD14010020D95F0000C55E0000F5
:10357000034B06229A700321024B034AFEF716BD45
:1035800014010020F35F0000C55E0000034B07221A
:103590009A700321024B034AFEF708BD1401002074
:1035A0000D600000C55E0000034B08229A700321E5
:1035B000024B034AFEF7FABC14010020276000000A
:1035C000C55E0000034B02221A700321024B034A1E
:1035D000FEF7ECBC14010020416000005B600000BD
:1035E000034B01221A700321024B034AFEF7DEBC93
:1035F00014010020776000005B600000034B002294
:103600001A700321024B034AFEF7D0BC14010020BC
:10361000916000005B600000012930B4044604D0D2
:103620008568D5F86451AD0705D5002220461146BE
:1036300030BCFEF7B3BD022905D91368054A022143
:1036400030BCFEF7B3BC02D15368034AF8E730BC84
:10365000704700BFA9600000C5600000FFF7DCBF35
:1036600037B50E4B5B780F2B044614D10B390F295D
:1036700011D90B251A23CDE90053094A094B022120
:10368000FEF794FC084A2B460321204603B0BDE810
:103690003040FEF78BBC03B030BD00BF14010020EA
:1036A000FF600000DC6000003061000070B58368DE
:1036B000D3F86431C3F340069B07044605D50022C6
:1036C000BDE870401146FEF769BD104D2B7813B16F
:1036D00000F0D4FD2E700E4E0E4DF1782046FFF70F
:1036E000BFFF10220021284601F08CF900232B7027
:1036F00073786B707388AB80284600F0F1FC20462D
:10370000054ABDE870400321FEF750BC600F002061
:1037100014010020500F0020456100002DE9F04108
:103720008368D3F86431C3F340069B070546884697
:10373000174605D50022BDE8F0411146FEF72EBD23
:10374000164C237813B100F099FD2670144E154CD9
:10375000F1782846FFF784FF10220021204601F06F
:1037600051F90123237073786370B3782371F37870
:10377000A371B8F1020F3378637105D1786801F055
:1037800008F9094BA060E360064800F0A9FC284650
:10379000064ABDE8F0410321FEF708BC600F002097
:1037A00014010020500F0020C53C00005D610000A6
:1037B00070B58368D3F86431C3F340069B070446B1
:1037C00005D50022BDE870401146FEF7E7BC0F4D5D
:1037D0002B7813B100F052FD2E700D4D20460D4C8C
:1037E000E978FFF73DFF20461022002101F00AF999
:1037F000022323706B786370EB7863712B782371ED
:103800002046BDE8704000F06BBC00BF600F002098
:1038100014010020500F0020012930B4044604D0C8
:103820008568D5F86451AD0705D5002220461146BC
:1038300030BCFEF7B3BC022905D91368054A022142
:1038400030BCFEF7B3BB02D15368034AF8E730BC83
:10385000704700BFA9600000C560000030B58368F4
:10386000D3F864319B0785B0044606D50022114683
:1038700005B0BDE83040FEF791BC414D414A0321FF
:10388000FEF794FB6B780F2B27D8DFE803F0081ABC
:10389000261C1E20222626262626262626243A4BAD
:1038A0003A4A03212046FEF781FBAB78082B16D855
:1038B000082B1DD8DFE803F0511C4B4F4D494745FD
:1038C0002400334BECE7334BEAE7334BE8E7334B69
:1038D000E6E7334BE4E7334BE2E7334AE1E7F42B27
:1038E0003FD007D8EC2B40D0F02B3CD0D82B3ED08B
:1038F0002E4A07E0F82B32D0FC2BF9D12C4B00E0FC
:103900002C4B2D4A03212046FEF750FB2B78012B30
:103910002FD0022B2FD0002B2FD1284B284A204606
:103920000321FEF743FBEB680293AB6801932B790D
:103930000093244AEB7803212046FEF737FB05B0BD
:1039400030BD214BDDE7214BDBE7214BD9E7214B94
:10395000D7E7214BD5E7214BD3E7214BD1E7214BCB
:10396000CFE7214BCDE7214BCBE7214BC9E7214BDB
:10397000C7E7214BD2E7214BD0E7214ACFE700BF71
:10398000140100207F610000915E0000FC5D0000DA
:10399000785E00005F5E0000465E0000295E000069
:1039A0000C5E0000DA5D00008D610000B461000073
:1039B0005A5F000027600000C55E000091600000B3
:1039C000C9610000056200000D600000F35F0000A7
:1039D000D95F0000BF5F00008B5F0000A55F0000A3
:1039E000745F0000405F0000255F00000A5F000078
:1039F000EF5E0000AA5E00007760000041600000FA
:103A0000E4610000012910B5044604D08368D3F8AE
:103A100064319B0706D5002220461146BDE81040C0
:103A2000FEF7BCBB022906D913680C4A0221BDE887
:103A30001040FEF7BBBA506800F0ABFF502806D923
:103A40002046074ABDE810400221FEF7AFBA054BF9
:103A5000054AD870032103462046E8E7A960000024
:103A6000636200001401002087620000012910B584
:103A7000044604D08368D3F864319B0706D500223E
:103A800020461146BDE81040FEF788BB022906D942
:103A900013680C4A0221BDE81040FEF787BA50684F
:103AA00000F077FF502806D92046074ABDE81040AD
:103AB0000221FEF77BBA054B054A18710321034624
:103AC0002046E8E7A96000006362000014010020BE
:103AD000A3620000012910B5044604D08368D3F81E
:103AE00064319B0706D5002220461146BDE81040F0
:103AF000FEF754BB022906D913680C4A0221BDE81F
:103B00001040FEF753BA506800F043FF632806D90F
:103B10002046074ABDE810400221FEF747BA054B90
:103B2000054A9860032103462046E8E7A9600000A3
:103B3000BD62000014010020E76200008368D3F832
:103B400064319B0703D500221146FEF727BB00F026
:103B500095BB0000012970B5044606D08368D3F8F0
:103B60006431C3F340069B0706D500222046114668
:103B7000BDE87040FEF712BB022906D91368184A47
:103B8000BDE870400221FEF711BA506800F001FF55
:103B9000642806D92046134ABDE870400321FEF789
:103BA00005BA114DE8602046104CE978FFF758FD42
:103BB00010223146204600F025FF052323706B7844
:103BC0006370AB7823712B786371EB78A371204617
:103BD000EB68A36000F084FA054B01221A7070BDF7
:103BE000A96000000063000014010020500F0020B5
:103BF000600F002038B58368D3F86431C3F3400107
:103C00009B07054605D50022BDE838401146FEF762
:103C1000C5BA0E4C1022204600F0F4FE0423237097
:103C20000B4B5A786270DA78227120461A799B68B9
:103C30006271A36000F054FA064B01221A70284604
:103C4000054ABDE838400321FEF7B0B9500F002007
:103C500014010020600F00202763000070B5836806
:103C6000D3F86431C3F340019B07054605D5002214
:103C7000BDE870401146FEF791BA0E4C1022204666
:103C800000F0C0FE0C4B5A789968627003261A79CE
:103C90005B88A1602046A380A271267000F020FA04
:103CA000064B01221A7031462846054ABDE870408D
:103CB000FEF77CB9500F002014010020600F002097
:103CC00032630000074B5B88022B09D90648074B7B
:103CD0000749C01AC008000440F00300FDF78AB984
:103CE000704700BF70000020584C0000304C0000AE
:103CF0003D630000012937B50446154604D08368AA
:103D0000D3F864319B0707D500221146204603B043
:103D1000BDE83040FEF742BA022904D913680F4AC1
:103D20000221FEF743F9686800F033FE01280546DA
:103D300004D90B4A02212046FEF738F9E8B200F018
:103D4000BFFA4FF08043074AD3F878350093032138
:103D5000054B2046FEF72AF903B030BD5C63000036
:103D600077630000BB630000956300007FB5836844
:103D7000D3F86431C3F340049B07054606D50022FF
:103D8000114604B0BDE87040FEF708BA0C22214687
:103D900001A800F037FE01A800F07AFA0C4A0D4E97
:103DA00003212846FEF702F9029B9C4207D3039B9E
:103DB000094A03212846FEF7F9F804B070BD019BBB
:103DC00032461B5D03212846FEF7F0F80134EBE78D
:103DD000CC630000E0630000EB63000000F1804072
:103DE00000F58050002382B0036003680193019BBB
:103DF00002B070470C4A08B50023C2F800324FF0F9
:103E0000FF33C2F808334FF48870FFF7E7FF012350
:103E10001361D2F81031002BFBD0BDE808404FF4FD
:103E20008870FFF7DBBF00BF001000401FB5544B88
:103E30004FF40072C3F850260022C3F83425C3F8AB
:103E40003825C3F82C25012291420446C3F83025B9
:103E500029D0022921D0002971D1AB22C3F8242511
:103E60004FF0AB32C3F81C2500210D22684600F04C
:103E7000C9FD0422FF238DF80A20062C4FF0010211
:103E80008DF808308DF80B204FF0000310D8042C6B
:103E900057D871D08DF8053017E0CC22C3F824250F
:103EA0004FF0CC32DEE76A22C3F82425354AD9E741
:103EB0000F2CEFD102238DF805307F238DF80830C9
:103EC0002F4B40F20122C3F850269DF802309DF896
:103ED00001209DF806409DF804009DF805101B0484
:103EE00043EA02239DF80320002A14BF4FF48012F6
:103EF0000022002C14BF4FF080640024234343EAC7
:103F0000805343EA01639DF807109DF80B0043EAD4
:103F1000417313431A4A43F00803C2F814359DF85D
:103F200008309DF80A10002814BF4FF08070002060
:103F3000034343EA014343F00073C2F8183504B069
:103F400010BD03227F218DF805208DF808108DF813
:103F500007208DF80A200221094A8DF8041040F24A
:103F600001218DF80B30C2F8501640F20311C2F84F
:103F70003415C2F83835A8E78DF80520A5E700BF4D
:103F8000001000401B81FE58184B73B5187018487C
:103F90000C46FFF7A9F8174B1548D3F8002200216B
:103FA0004FF0FF32C3F80012C3F80823D3F81055BE
:103FB0004FF47A52A4FB0243EAB2C2F1200603FA9C
:103FC00006F6A2F1200524FA02F223FA05F532439F
:103FD000012300932A43FFF7B0F80548FFF790F854
:103FE000034802B0BDE87040FFF770B8610F0020D1
:103FF000C46D00000080004073B505460C46FFF715
:1040000015FF0F2D134A14490CBF7E23FF23137095
:10401000F0200023CC250133DBB29CB9C1F800416C
:10402000D1F800610196019ED1F80061002EFBD00D
:10403000D1F80865D654FF2BEDD1084BC3F8042501
:1040400002B070BD022C01D1D554F4E7012C08BF99
:10405000D054F0E76C10002000D000400010004069
:104060000F28084B06D1A1F10B020F2A05D801EB4E
:1040700081013239C3F8081570470522C3F80825B5
:10408000704700BF0010004037B5124C01900D463C
:104090001146FFF7AFFE0198C4F81005D4F80032BE
:1040A00043F02103C4F800320B4BC4F804350190EF
:1040B000FFF7BCFE01982946FFF7D2FF074B00220D
:1040C0001A604FF48053C4F804330123636003B0D3
:1040D00030BD00BF00100040680F002068100020B5
:1040E000F0B5027885B0052A19D8DFE802F0031A86
:1040F000515960635C4C457806794179FFF77AFE47
:10410000C4F81055D4F8003243F00103C4F800326B
:104110002846C4F80C65FFF7A3FF0123236005B010
:10412000F0BD45784179077986794F4CFFF762FEFB
:104130002846FFF761FF062D23D8042D23D9D4F894
:10414000003243F4001343F00103C4F80032284660
:10415000C4F810553146C4F80C75FFF781FF434B86
:1041600000224FF486701A60FFF738FE0823C4F867
:1041700004333D4A01232360D2F80C31002BFBD0DD
:10418000CDE70F2DDBD0D4F8003243F02103DCE77C
:1041900002794179407805B0BDE8F040FFF774BF7F
:1041A0008168407905B0BDE8F040FFF7EDBE816859
:1041B0000079F7E745782E4A8368525D077986795A
:1041C000417903914FF4837462430020C3F1640486
:1041D0005443B4FBF3F41444FDF74CFAFFF70AFE22
:1041E00003992846FFF708FF1F4BC3F81055D3F873
:1041F000002242F00302C3F800223146C3F80C75D6
:104200002846FFF72DFF1B48FEF76EFF1A4B0025CF
:10421000D3F80022C3F800524FF0FF32C3F808234E
:10422000D3F81025D2B2210FC2F12003240101FAE4
:1042300003F3A2F1200024FA02F221FA00F01A435B
:1042400001210243009102230A48FEF776FF094844
:10425000FEF756FF0748FEF739FF284605B0BDE8D0
:10426000F040FDF709BA00BF001000406C110020BB
:10427000CC6D0000C46D00000080004008B503480C
:10428000FEF732FFBDE80840FFF7B4BDC46D000083
:10429000084B094AD3F8103503F00F030F2B0CBF5E
:1042A0007F234FF48073C0E90023044B1B688360B5
:1042B000704700BF00100040680F00206810002009
:1042C00001289CBF4FF08043C3F878057047000079
:1042D000114AD2F8303110B53BB110494FF4987003
:1042E000FFF77CFD0B6801330B60D2F80C3193B102
:1042F0000B4A4FF48670FFF771FD136801331360AA
:10430000084A11688A68934205D1FFF773FDBDE83A
:104310001040CB68184710BD001000406810002006
:104320006C110020640F0020064B07490322C3F8DC
:104330000029C3F804190549C3F81019C3F8142952
:10434000704700BF001000400948202094E206009A
:104350001E4B1F490022C3F8FC2F0122C3F8FC2F7B
:10436000C3F800124FF48471C3F814151949C3F847
:10437000181540F25B61C3F8381540F20311C3F819
:104380003415C3F830250322C3F8102512499622AC
:10439000C3F84425CA78C3F824254A788878097870
:1043A000120442EA006242EA01220C49C3F81C25C9
:1043B0008A7848780978120442EA00220A43C3F84E
:1043C0003C251022C3F80423704700BF00100040B2
:1043D0000100100025000302240100202801002014
:1043E0000369C26893429CBF80681B18013B981AFE
:1043F00070472DE9F843D0E902940546A9EB04087B
:104400004068904520440F46144404D900F0D1FA86
:10441000EC60BDE8F8834246A4EB090400F0C9FA59
:104420006868224607EB0801F0E72DE9F843C56804
:104430000646894617464FF000083469B36870682D
:10444000A54228BFE418013C621B5C1BBC4228BF8C
:104450003C46944228BF144649462844224600F070
:10446000A8FAB3682544AB4208BF00253F1BA0440F
:10447000A144F560E1D14046BDE8F88310B5114C88
:10448000114AA2610223C4E90433104BE361A26420
:104490004FF400730E4A0F492362E2640023102296
:1044A000E01DA3626362E362A3656365E365226561
:1044B00000F0DBFA0849204600F0D7FA2023A37168
:1044C00010BD00BF70110020DC6D0000F81100204D
:1044D000E8110020E56D0000E96D000070B5164B95
:1044E000182400FB04451D4404FB00331646DC6A17
:1044F000012C0ED0022C18D0E4B92846FFF770FF2B
:10450000864204D832462846FFF773FF34462046D9
:1045100070BD2846FFF764FF8642344628BF044634
:1045200022462846FFF765FFF1E72846BDE87040C0
:10453000FFF77BBF0024EAE770110020FFF79EBF62
:104540004FF08053D3F830210D2A55D14FF08041E0
:104550000022C1F80C21C1F81021C1F838254A4ABF
:10456000D3F80404C2F82005D3F80804C2F82405DF
:10457000D3F80C04C2F82805D3F81004C2F82C05AF
:10458000D3F81404C2F83005D3F81804C2F834057F
:10459000D3F81C04C2F84005D3F82004C2F844053F
:1045A000D3F82404C2F84805D3F82804C2F84C050F
:1045B000D3F82C04C2F85005D3F83004C2F85405DF
:1045C000D3F83404C2F86005D3F83804C2F864059F
:1045D000D3F83C04C2F86805D3F84004C2F86C056F
:1045E000D3F84434C2F87035D1F80034DB0744BF47
:1045F0006FF00103C1F80034244AD2F8883043F444
:104600007003C2F88830BFF34F8FBFF36F8F4FF046
:104610001023D3F80022002A03DBD3F80432002B46
:104620002EDA1B4B0122C3F80425D3F80024002AFC
:10463000FBD04FF010221221C2F80012D3F8002450
:10464000002AFBD04FF010231222C3F80422104B93
:10465000D3F80024002AFBD00022C3F80425D3F8A5
:104660000024002AFBD0BFF34F8F0849094BCA68CA
:1046700002F4E0621343CB60BFF34F8F00BFFDE74E
:10468000054B064A1A60704700C0004000ED00E08C
:1046900000E001400400FA052C0100200090D00346
:1046A0007F2805D8034B185C034B5B5C18407047B0
:1046B00000207047FC6D00007C6E0000A0F16103DB
:1046C000192B98BF20387047A0F14103192B98BFD0
:1046D000203070477F2805D8034B185C034B5B5C88
:1046E0001840704700207047FC6D00007C6E000091
:1046F000A0F16103192B98BF20387047A0F1410346
:10470000192B98BF203070477F299ABF0170012074
:104710006FF02E0070475AB10A787F2A0AD800B18C
:104720000260002119605960501A18BF01207047BB
:10473000002070476FF02E007047000008B5034B53
:104740005B689B681B68984708BD00BF300100206C
:1047500008B50721FFF7F2FF08BD08B50621FFF7EE
:10476000EDFF08BD08B50421FFF7E8FF08BD38B527
:1047700004460D46FFF7F6FF30B1A4F13000A84221
:10478000A8BF4FF0FF3038BD2046FFF7E6FF10B15D
:10479000A4F15700F3E72046FFF7DAFF10B1A4F1C8
:1047A0003700ECE74FF0FF30E9E708B50821FFF7E5
:1047B000C5FF08BD08B50921FFF7C0FF08BD00000F
:1047C00000B5FBF705FE024B18445DF804FB00BF83
:1047D000080000002DE9F04F83B001908B4692460F
:1047E0000446264614F8015BE5B12846FFF7DDFFD5
:1047F0000028F6D1302D15D1B31C257805F0DF0245
:10480000582A06D0BAF1000F4ED14FF0010A0826FF
:1048100006E03AF0100243D1A31C657892461026B8
:104820001C4603E0BAF1000F1CD10A264FF0000825
:104830004746C14631462846FFF799FF002815DB59
:1048400008FB06084FEA184307FB06371FFA88F8EB
:10485000B7F5803F28BF4FF0010914F8015B4FF016
:10486000010AE7E756464FF0000ADFE7BBF1000F09
:1048700007D0BAF1000F01D0631E0193019BCBF862
:104880000030B9F1000F04D148EA074003B0BDE899
:10489000F08FFFF795FF222303604FF0FF30F5E71D
:1048A00056464FF0010ABBE756464FF0010AB7E7FC
:1048B000D2B110B51446012A12D00A46034620444C
:1048C00000F1FF3E1146184613F8014B44B1013286
:1048D00091F800C0A44503D1184611469E45F1D178
:1048E00000780B78C01A10BD002070472DE9F04702
:1048F00082B08046894692460446274614F8015BFA
:1049000055B32846FFF751FF06460028F5D12B2D59
:1049100015D1524601A92046FFF75CFF0346B9F1C5
:10492000000F2CD0019AA24208BF4246C9F80020CD
:104930002EB3002B1CDB584202B0BDE8F0872D2DB2
:104940000AD1524601A92046FFF744FF0346B9F1B8
:10495000000FEED00126E5E7524601A93846FFF7E1
:1049600039FF0346B9F1000F09D03C460026D9E7CC
:10497000FFF726FF222202604FF00040DCE71846D6
:10498000002BD9DAFFF71CFF222303606FF00040F1
:10499000D2E738B50446FFF713FF05680A22002165
:1049A0002046FFF7A3FF0446FFF70AFF05602046F5
:1049B00038BD844640EA010313F0030F18D1844642
:1049C000202A0BD32DE9F007B1E8F807A0E8F80793
:1049D000A2F12002202AF7D2BDE8F007042A07D36B
:1049E00051F8043B40F8043BA2F10402042AF7D238
:1049F000002A05D011F8013B00F8013B013AF9D13A
:104A0000604670478446002A2DD010F0030F04D072
:104A100000F8011B013A26D0F7E7C9B241EA0121AB
:104A200041EA0141202A12D3A2F120022DE9F0032C
:104A30000B460C460D460E460F4688468946A0E8B2
:104A4000FA03203AFBD2BDE8F00320320BD0042A4F
:104A500005D340F8041B043A05D0042AF9D200F823
:104A6000011B013AFBD160467047024610F0030F6C
:104A700016D111F0030F13D12DE9F0004FF00137DB
:104A80004FF0803351F8044BA4EB070525EA0405E9
:104A90001D4002D142F8044BF4E7A1F10401F0BC3F
:104AA00011F8013B02F8013B002BF9D1704710F0DF
:104AB000030F19D111F0030F16D12DE970004FF03B
:104AC00001364FF0803350F8044B51F8045BAC4290
:104AD00005D1A4EB060525EA04051D40F3D0A0F19D
:104AE0000400A1F1040170BC10F8012B11F8013B86
:104AF000D21A01D1002BF7D11046704700F1010105
:104B000010F0030F11D010F8012B002A23D010F061
:104B1000030F0AD010F8012B002A1CD010F0030F4D
:104B200003D010F8012B002A15D02DE970004FF0AA
:104B300001324FF0803350F8044BA4EB020525EA14
:104B400004051D4000D1F6E7A0F1040070BC10F888
:0C4B5000012B002AFBD1A0EB01007047F4
:104B5C00000000009853000000000000F855000011
:104B6C0000000000CC5B000000000000BC5B0000FB
:104B7C0000000000AC5B0000000000009C5B00002B
:104B8C0000000000C05C000000000000146D00007C
:104B9C0000000000A46D000000000000446D000047
:104BAC0000000000846D000000000000546D000047
:104BBC0000000000046D000000000000346D0000D7
:104BCC0000000000B46D000000000000F46C000058
:104BDC0000000000746D000000000000646D000017
:104BEC0000000000D46C000000000000C46C000049
:104BFC0000000000946D000000000000E46C000058
:084C0C0000000000246D00000F
:104C1400440F0020F00E00201400000004000000E7
:0C4C240001000000985D000094000020DA
:104C3000075D0000000000000D5D000000000000A6
:104C4000115D000000000000175D00000000000082
:104C50001C5D000000000000FD5100000000030387
:104C60008354000000000000B55D00000000000358
:104C70007154000000000003015200000000000316
:104C8000595D000000000003EB5B00000000000025
:104C9000015D000000000000045C00000000000056
:104CA000925D000000000003F85C000000000000BE
:104CB000F84D000000000000044E0000DC00002061
:104CC000DC5B0000000100207B5D00000C01002087
:104CD000880100205002002058020020900100208E
:104CE000800000200852000018000000600D002025
:104CF000E80E0020F00E0020680D00208400002047
:084D0000605D000030000000BE
:104D0800000000000000000000000000000000009B
:104D1800000000000000000000000000000000008B
:104D2800000000000000000000000000000000007B
:104D3800000000000000000000000000000000006B
:104D4800000000000000000000000000000000005B
:0C4D58000000000000000000000000004F
:104D6400000000000000000000000000000000003F
:104D7400000000000000000000000000000000002F
:104D8400000000000000000000000000000000001F
:104D9400000000000000000000000000000000000F
:104DA40000000000000000000000000000000000FF
:104DB40000000000000000000000000000000000EF
:104DC40000000000000000000000000000000000DF
:104DD40000000000000000000000000000000000CF
:104DE4000000000000000000000000000338FDD8AF
:104DF40070470000DD03000049040000D9030000EF
:104E04007274745F6C6F675F6261636B656E64007C
:104E140064697361626C65640025730D0A092D2051
:104E24005374617475733A2064656163746976615F
:104E34007465640D0A0D0A0025730D0A092D2053AB
:104E440074617475733A2025730D0A092D20494441
:104E54003A2025640D0A0D0A00496E76616C696476
:104E6400206261636B656E643A2025730D0A002528
:104E7400733A257325730D0A0020756E6B6E6F7778
:104E84006E20706172616D657465723A20004E6FB8
:104E94007420737570706F727465642E0D0A002A25
:104EA400004C6F6773206172652068616C7465647F
:104EB400210D0A006D6F64756C655F6E616D650030
:104EC400252D343073207C2063757272656E7420D6
:104ED4007C206275696C742D696E200D0A002D2D7D
:104EE4002D2D2D2D2D2D2D2D2D2D2D2D2D2D2D2DEE
:104EF4002D2D2D2D2D2D2D2D2D2D2D2D2D2D2D2DDE
:104F04002D2D2D2D2D2D2D2D2D2D2D2D2D2D2D2DCD
:104F14002D2D2D2D2D2D2D2D0D0A00252D343073E5
:104F2400207C20252D3773207C20257325730D0AC2
:104F340000656E61626C650042616420706172613B
:104F44006D6574657220636F756E742E0D0A00644E
:104F5400697361626C6500556E6B6E6F776E206F5E
:104F64007074696F6E3A2025730D0A004C6576657E
:104F74006C20756E617661696C61626C6520666F28
:104F840072206D6F64756C653A2025730D0A0055A7
:104F94006E6B6E6F776E206D6F64756C653A2573FA
:104FA4000D0A00556E6B6E6F776E207365766572B1
:104FB400697479206C6576656C3A2025730D0A0056
:104FC4004261636B656E647320666C7573686564B7
:104FD400006C6F6700436F6D6D616E647320666F64
:104FE4007220636F6E74726F6C6C696E67206C6F85
:104FF40067676572004C6F67676572206261636BF7
:10500400656E647320636F6D6D616E64732E0063EF
:105014006F6E666967004D616E616765206C6F67CE
:1050240067657220636F6E66696775726174696F14
:105034006E00276C6F672064697361626C65203C45
:105044006D6F64756C655F303E202E2E203C6D6F55
:1050540064756C655F6E3E272064697361626C657C
:1050640073206C6F677320696E2073706563696663
:10507400696564206D6F64756C65732028616C6C60
:10508400206966206E6F206D6F64756C6573207384
:105094007065636966696564292E00276C6F6720F3
:1050A400656E61626C65203C6C6576656C3E203C87
:1050B4006D6F64756C655F303E202E2E2E20203C73
:1050C4006D6F64756C655F6E3E2720656E61626C02
:1050D4006573206C6F677320757020746F20676927
:1050E40076656E206C6576656C20696E20737065DC
:1050F400636966696564206D6F64756C65732028E7
:10510400616C6C206966206E6F206D6F64756C65D0
:105114007320737065636966696564292E00676F1F
:1051240000526573756D65206C6F6767696E670003
:1051340068616C740048616C74206C6F6767696E99
:1051440067006C6973745F6261636B656E6473009E
:105154004C69737473206C6F676765722062616356
:105164006B656E64732E004C6F6767657220737491
:1051740061747573004C6F616420636F6E66696758
:1051840075726174696F6E2073746F7265642069DF
:105194006E206E6F6E2D766F6C6174696C65206D18
:1051A400656D6F72792E0073746F72650053746F3E
:1051B40072652063757272656E7420636F6E6669C2
:1051C4006775726174696F6E20696E206E6F6E2DE3
:1051D400766F6C6174696C65206D656D6F72792E84
:1051E40000646562756700696E666F006E6F6E6558
:1051F400007761726E696E67006170700062616C45
:105204006C6F632E6C6F675F6D656D706F6F6C0094
:105214000100000079050000780600207F000000EE
:10522400F8060020010000009D09000001000000B4
:1052340031050000F05100005E540000F5510000FB
:10524400EB510000E5510000E55100005E54000000
:10525400EB510000F0510000F55100000000000087
:1052640068520000534F00003650000028520000DE
:10527400D5060000354F00009F500000305200005A
:10528400D506000022510000255100000000000056
:10529400C90600003451000039510000000000002C
:1052A400BD060000725100006B51000000000000B8
:1052B400B106000000000000000000000000000033
:1052C4000000000000000000D05200001E64000036
:1052D40079510000000000007D080000AB5100007F
:1052E400B1510000000000009D0800000000000013
:1052F40000000000000000000000000000000000AA
:10530400085300008A5D0000F94F000014520000A9
:1053140000000000135000001A500000C8520000A2
:1053240000000000534F00003650000028520000D7
:10533400FD0C0000354F00009F500000305200006B
:10534400FD0C000022510000255100000000000067
:105354006F050000345100003951000000000000C6
:105364005D0500004651000054510000000000009B
:10537400BD050000725100006B51000000000000E8
:10538400590B0000000000000000000000000000B5
:1053940000000000D54F0000D94F0000005300006A
:1053A400390800001B5B313B33316D0025734C6FB2
:1053B40067732064726F70706564202825642925E2
:1053C400730D0A001B5B306D003C25733E20257372
:1053D4003A2000202530327800202020007C00254F
:1053E40063001B5B313B33306D001B5B313B33325D
:1053F4006D001B5B313B33336D001B5B313B33343E
:105404006D001B5B313B33356D001B5B313B333629
:105414006D001B5B313B33376D000000C853000047
:10542400E6530000A8530000EE530000F6530000BA
:10543400FE530000065400000E54000016540000F1
:10544400000000005E540000F5510000EB51000024
:10545400E5510000466174616C206572726F7200E0
:1054640053797374656D2072657365740061746635
:1054740069666F2E6D5F7265715F6669666F006144
:1054840070705F74696D65720000010006000000B1
:10549400000000001007002089130000525443202C
:1054A400696E7374616E636520616C7265616479A1
:1054B40020696E697469616C697A65642E0052545E
:1054C400433A20696E697469616C697A65642E0077
:1054D4000000000000000000000000000338FDD8B8
:1054E400704742616420617267756D656E742063F4
:1054F4006F756E740025730D0A092D20456C656D5A
:10550400656E742073697A653A092564202B202519
:1055140064206279746573206F66206465627567C0
:1055240020696E666F726D6174696F6E0D0A092D64
:105534002055736167653A09257525252028257549
:10554400206F7574206F6620257520656C656D6508
:105554006E7473290D0A092D204D6178696D756D7E
:105564003A092575252520282575206F7574206F27
:105574006620257520656C656D656E7473290D0A4A
:105584000D0A0062616C6C6F6300436F6D6D616E38
:10559400647320666F722042414C4C4F43206D610E
:1055A4006E6167656D656E74005072696E74207308
:1055B4007461747573206F662062616C6C6F632014
:1055C400696E7374616E6365732E000000000000E1
:1055D400D855000072510000AD55000000000000D5
:1055E400111A00000000000000000000000000008C
:1055F40000000000875500008E550000D0550000C3
:10560400111A00001B5B256443001B5B25644100E9
:105614001B5B256444001B5B256442004C6F737460
:10562400206C6F6773202D20696E637265617365EA
:10563400206C6F67206261636B656E6420717565B1
:1056440075652073697A652E0A006E6F742074651F
:10565400726D696E617465643A2025630A003A20AC
:10566400636F6D6D616E64206E6F7420666F756E0E
:1056740064002D68002D2D68656C7000506C6561A8
:105684007365207370656369667920612073756240
:10569400636F6D6D616E642E0A00546162206675DD
:1056A4006E6374696F6E3A20636F6D6D616E6473BF
:1056B40020636F756E746572206F766572666C6FA9
:1056C4007765642E0A000A25732573000A25730082
:1056D4004F7074696F6E733A0A002020252D2A7367
:1056E4003A0053686F7720636F6D6D616E64206854
:1056F400656C702E00202025732573257300537567
:1057040062636F6D6D616E64733A0A0025733A20AB
:1057140077726F6E6720706172616D657465722057
:10572400636F756E740A0025733A257325730A0036
:105734004E6F20726573706F6E73652066726F6D45
:1057440020746865207465726D696E616C2C2061CB
:105754007373756D656420383078323420736372E6
:1057640065656E2073697A650A005B2533645D2084
:1057740025730A006F6666004563686F2073746161
:105784007475733A2025730A004C6F7374206C6F20
:1057940067733A2025750A4D6178206C6F67207114
:1057A40075657565207574696C697A6174696F6E65
:1057B4003A2025752525205B25752F25755D0A0062
:1057C400726573697A6500436F6E736F6C652067E9
:1057D400657473207465726D696E616C2073637295
:1057E40065656E2073697A65206F722061737375C5
:1057F4006D657320383020696E2063617365207491
:10580400686520726561646F7574206661696C7384
:105814002E204974206D7573742062652065786547
:10582400637574656420616674657220656163687C
:10583400207465726D696E616C2077696474682088
:105844006368616E676520746F20656E7375726539
:1058540020636F7272656374207465787420646960
:1058640073706C61792E00686973746F7279004388
:105874006F6D6D616E6420686973746F72792E0048
:10588400636C690055736566756C2C206E6F7420AB
:10589400556E69782D6C696B6520434C4920636FA4
:1058A4006D6D616E64732E00636C65617200436C90
:1058B4006561722073637265656E2E00646566614E
:1058C400756C7400417373756D652038302063689E
:1058D4006172732073637265656E2077696474689E
:1058E40020616E642073656E64207468697320732C
:1058F400657474696E6720746F20746865207465BC
:10590400726D696E616C2E00636F6C6F72730054FC
:105914006F67676C6520636F6C6F72656420737961
:105924006E7461782E006563686F00546F67676CEE
:105934006520434C49206563686F2E00737461745D
:105944007300434C4920737461746973746963739D
:105954002E00526573657420434C4920737461743E
:1059640069737469637320666F7220746865204C70
:105974006F67676572206D6F64756C652E00736860
:105984006F770047657420434C49207374617469D0
:10599400737469637320666F7220746865204C6F3A
:1059A40067676572206D6F64756C652E004469735A
:1059B40061626C6520434C49206563686F2E204109
:1059C40072726F777320616E6420627574746F6E87
:1059D400733A204261636B73706163652C20446584
:1059E4006C6574652C20456E642C20486F6D652CA5
:1059F40020496E7365727420617265206E6F742025
:105A040068616E646C65642E00456E61626C65202D
:105A1400434C49206563686F2E0044697361626C6E
:105A24006520636F6C6F7265642073796E7461783E
:105A34002E00456E61626C6520636F6C6F726564E5
:105A44002073796E7461782E001B5B3F336C001BEE
:105A54005B4A001B5B6D001B5B324A001B5B48000A
:105A64001B5B366E00202D20000000000338FDD89B
:105A740070472D682C202D2D68656C700000000087
:105A8400000000008C5A00000C590000135900005B
:105A9400045B0000712400002A5900002F59000003
:105AA4003C5B0000B9260000405900004659000044
:105AB400CC5A0000B12400000000000000000000E7
:105AC400000000000000000000000000D45A0000A4
